:020000040800F2
:1000000080080020E9020008930B0008510A00084C
:10001000F50A0008310700084F1F00080000000023
:100020000000000000000000000000003102000895
:10003000B90800080000000085020008F51100085A
:100040000303000803030008030300080303000878
:100050000303000803030008030300080303000868
:100060000303000803030008030300080303000858
:100070000303000803030008030300080303000848
:100080000303000803030008030300080303000838
:100090000303000803030008030300080303000828
:1000A0000303000803030008030300080303000818
:1000B0000303000803030008030300080303000808
:1000C00003030008030300080303000803030008F8
:1000D0000303000831170008030300080119000892
:1000E00003030008030300080303000803030008D8
:1000F00003030008030300080303000803030008C8
:1001000003030008030300080303000803030008B7
:1001100003030008030300080303000803030008A7
:100120000303000803030008030300080303000897
:100130000303000803030008030300080303000887
:100140000303000803030008030300080303000877
:100150000303000803030008030300080303000867
:100160000303000803030008030300080303000857
:100170000303000803030008030300080303000847
:10018000030300080303000800F002F800F041F840
:100190000AA090E8000C82448344AAF10107DA45E2
:1001A00001D100F036F8AFF2090EBAE80F0013F0F3
:1001B000010F18BFFB1A43F0010318479C240000ED
:1001C000BC240000103A24BF78C878C1FAD852077E
:1001D00024BF30C830C144BF04680C6070470000C1
:1001E0000023002400250026103A28BF78C1FBD840
:1001F000520728BF30C148BF0B607047642900F028
:10020000AB80002070471FB502F018FA1FBD10B573
:1002100010BD00F05FFA1146FFF7F5FF01F0FEFE9A
:1002200000F07DFA03B4FFF7F2FF03BC01F098FE83
:100230002A4B19680868B0E8F04F80F30988BFF3CB
:100240006F8F4FF0000080F31188704700000000AE
:1002500006480068006880F3088862B661B6BFF39C
:100260004F8FBFF36F8F00DF00BF00BF08ED00E0CE
:10027000DFF80C00016841F470010160704700BFB5
:1002800088ED00E0EFF30980BFF36F8F134B1A681E
:100290001EF0100F08BF20ED108A20E9F04F10600B
:1002A00008B44FF0500080F31188BFF34F8FBFF3B5
:1002B0006F8F02F0D9F84FF0000080F3118808BC6E
:1002C00019680868B0E8F04F1EF0100F08BFB0ECD6
:1002D000108A80F30988BFF36F8F704754000020A5
:1002E000EFF3058070470000094880470948004740
:1002F000FEE7FEE7FEE7FEE7FEE7FEE7FEE7FEE7D6
:10030000FEE7FEE704480549054A064B7047000032
:1003100029120008890100088002002080080020BE
:100320008004002080040020704700000FB41CB53A
:10033000084B06AA7B4469460090059800F0ADF989
:1003400004460020694600F0BBF920461CBC5DF85D
:1003500014FB0000890300002DE9F041064600244B
:1003600010687529314616A510D0AFF3008000281B
:1003700002DA404213A507E031688A0701D512A5C9
:1003800002E0490704D511A5012401E0AFF3008084
:1003900000210A2206F1240709E0B0FBF2FCB0FBC1
:1003A000F2F302FB1C00303078541846491C002838
:1003B000F3D123462A463046BDE8F04100F00EB99D
:1003C000000000002D0000002B00000020000000B5
:1003D0002DE9F05F894604464FF0000ADFF824B1AA
:1003E000FB44C0F820A02046E168884700287DD063
:1003F000252806D0D4E901219047206A401C2062BC
:10040000F1E700255F462046E16888472028064638
:1004100007DB312E05D2B81910F8200C08B10543BE
:10042000F1E7A80701D525F00405C4F81CA00027B2
:10043000C4F818A02A2E09D0304601F08AFD38B33E
:1004400004EB8708303EC8F8186019E059F8041B1F
:10045000204604EB87029161E1688847012F064638
:1004600018D1E069002820DA25F020051DE0D8F831
:10047000180000EB800006EB40003038C8F8180088
:100480002046E1688847064601F063FD0028EED16A
:10049000012F0AD02E2E08D12046E16888477F1C04
:1004A0000646022F45F02005C4DBA069002803DAC8
:1004B000404245F00105A061E80701D025F0100594
:1004C000A6B1A6F14100192802D8203645F40065EE
:1004D0004A463146204625604D46FFF78FFE60B103
:1004E000012807D0ED1D25F0070000E007E000F12E
:1004F000080978E705F1040975E730467AE7206ACC
:10050000BDE8F09F6222000030B505460B462A4642
:1005100013F8014B12F8010B08B1A042F8D01CB13E
:10052000002802D06D1CF1E7284630BD421E12F8AB
:10053000013F002BFBD111F8013B002B02F8013BDE
:10054000F9D170474FF000020429C0F0128010F07A
:10055000030C00F01B80CCF1040CBCF1020F18BF9F
:1005600000F8012BA8BF20F8022BA1EB0C0100F032
:100570000DB85FEAC17C24BF00F8012B00F8012B05
:1005800048BF00F8012B70474FF0000200B513463A
:1005900094469646203922BFA0E80C50A0E80C50A3
:1005A000B1F12001BFF4F7AF090728BFA0E80C5054
:1005B00048BF0CC05DF804EB890028BF40F8042B4D
:1005C00008BF704748BF20F8022B11F0804F18BFBA
:1005D00000F8012B70477047704770472DE9F047CE
:1005E0000D4699469246044600F1240801688806A3
:1005F00004D5E06921F01001216000E00120A8424B
:1006000001DD471B00E00027A1697A1902EB090010
:10061000081AA0612078C00602D42046AFF30080FB
:10062000002608E0D4E901211AF806009047206A64
:10063000401C761C20624E45F4DB2078C0060AD5AB
:100640002046AFF3008006E0D4E901213020904736
:10065000206A401C2062381EA7F10107F4DC07E085
:10066000D4E9012118F805009047206A401C206257
:10067000281EA5F10105F3DC2046AFF300802078A9
:10068000000602D50220BDE8F0870120FBE700004C
:1006900001694A1C02610878704700B58FB0CDE946
:1006A00001310021059105497944CDE90310114636
:1006B0006846FFF78DFE0FB000BD0000E5FFFFFFAD
:1006C0000A6802F8010B0A60704700000048704792
:1006D000200200207546FFF7F9FFAE460500694687
:1006E000534620F00700854618B020B5FFF70AFEF4
:1006F000BDE820404FF000064FF000074FF0000823
:100700004FF0000B21F00701AC46ACE8C009ACE8A3
:10071000C009ACE8C009ACE8C0098D46704710B507
:100720000446AFF300802046BDE81040FFF77ABDD5
:1007300000BFFEE710B5002000F08CF9002000F0AB
:100740008BFB10BD10B5012000F02CF810BD00008F
:1007500010B5002403E0012001F042FC641C4FF4BA
:1007600000710F4800F014F9012801D1642CF2DB6C
:10077000642C01DB002010BD002403E0012001F007
:100780002FFC641C4FF40071054800F001F908B912
:10079000642CF3DB642C01DB0020ECE70120EAE7AA
:1007A000001802401CB504460121402000F0B0FAB8
:1007B0008DF8044003208DF8050000208DF8060018
:1007C00001208DF80700400200906946014800F0C2
:1007D00074F81CBD0018024010B5002403E001208D
:1007E00001F0FEFB641C4FF40071114800F0D0F8DA
:1007F000012801D1642CF2DB002403E0012001F088
:10080000EFFB641C4FF40071094800F0C1F808B90F
:10081000642CF3DB282001F0E3FB4FF40071044863
:1008200000F0B6F8012800D110BD0020FCE7000060
:100830000018024070B50025002400BF05E06006E6
:10084000040EFFF7C9FF04436D1C082DF7DB20469B
:1008500070BD70B50446002500F01CF8FFF778FF66
:10086000A8B100BF03E0FFF7E5FF60556D1C052D43
:10087000F9DB207861780844A1780844E1780844DD
:100880002179884201D1012070BD0020FCE70020C1
:10089000FAE7000010B50120FFF784FF4FF4007164
:1008A000044800F07EF8142001F08EFB0020FFF7D2
:1008B00079FF10BD001802407047F0B50A460021CC
:1008C0000023002400BF3DE0012505FA01F315686F
:1008D00005EA03049C4234D105684F000326BE405C
:1008E000B543056015794E00B5400668354305608F
:1008F0001579012D02D01579022D16D185684F008A
:100900000326BE40B543856055794E00B5408668E4
:1009100035438560456801268E40B543456045688E
:1009200096798E40B6B235434560C5684F000326C0
:10093000BE40B543C560D5794E00B540C668354365
:10094000C560491C1029BFD3F0BDF0B500230024B9
:100950004D07ED0E02FA05F3CE1000F1200555F813
:1009600026504E07F70E0F26BE40B543CF1000F1BC
:10097000200646F82750CE1000F1200555F82650E5
:1009800045EA0304CE1000F1200545F82640F0BDED
:100990000246002013690B400BB1012000E000204B
:1009A00070474183704701837047000070B5002491
:1009B00080212448FFF7F5FF082001F011FB80217A
:1009C0002048FFF7F0FF0F2001F00AFB80211D48AF
:1009D000FFF7E7FF00201C49086009E0641C0A20BB
:1009E00001F0FEFAB4F5967F02D14FF47A7070BD33
:1009F00010211648FFF7CCFF0128EFD10121124842
:100A0000243800F051FC002409E0641C0A2001F0A5
:100A1000E7FAB4F5116F02D14FF4FA60E7E710215D
:100A20000A48FFF7B5FF0128EFD007480668002104
:100A30000548243800F038FC3A20B6FBF0F528468B
:100A4000D5E70000000802402404004000000240F6
:100A500000BFFEE710B50446002C0CDD4021144811
:100A6000FFF7A1FF4FF480711148FFF79AFFA0B282
:100A700000F03EF91AE064B940210D48FFF793FFFA
:100A80004FF480710A48FFF78EFFA0B200F030F9F2
:100A90000CE040210648FFF784FF4FF480710448C2
:100AA000FFF781FF614288B200F022F910BD00001B
:100AB000000802401CB50121142000F029F94FF470
:100AC0002060009000208DF8040001208DF80700C0
:100AD00002208DF8050069460448FFF7EEFE60200D
:100AE000009069460248FFF7E8FE1CBD000802407E
:100AF0000010024000BFFEE71CB50121042000F0F9
:100B000007F90121082000F003F901208DF8040005
:100B10004FF4A070009003208DF8050000208DF8A0
:100B200006008DF8070069460F48FFF7C6FE4FF430
:100B3000A0710D48FFF735FFC020009001208DF80F
:100B4000040003208DF8050000208DF806008DF8C4
:100B5000070069460548FFF7B0FEC0210348FFF7CC
:100B600020FF00F05DF81CBD00080240000C0240B0
:100B700010B54620FFF76EFF462000F06DF910BD5E
:100B800010B504462046FFF765FF204600F064F9E3
:100B900010BD704770B5002100230F22C4781CB32C
:100BA000174C246804F4E064C4F5E064C4F307213E
:100BB000C1F10404E3B20A4144789C40E1B2847874
:100BC000144021430C07210E0E4C05786155047822
:100BD00004F01F050124AC4005786D11AD0005F14E
:100BE000E025C5F8004109E0047804F01F05012460
:100BF000AC40054D0678761145F8264070BD0000E2
:100C00000CED00E000E400E080E100E00249014377
:100C1000024A1160704700000000FA050CED00E088
:100C200000B58BB00121084600F082F8012108468A
:100C300000F06EF802208DF828000C2009900320A7
:100C40008DF8290001208DF82B0009A92748FFF70E
:100C500034FE012202212548FFF777FE01220321FD
:100C60002248FFF772FE4FF0804000F029FB002081
:100C7000ADF82000ADF81A00632007902920ADF8E8
:100C8000180000208DF8220006A94FF0804000F0E7
:100C900019FC01A800F005FC6020ADF8040000205C
:100CA000ADF810000120ADF806000020039001A966
:100CB0004FF0804000F052FB0020039001A94FF05C
:100CC000804000F0A5FB0821C80600F097FB082132
:100CD000C80600F0D9FB0121880700F0D9FA0121EC
:100CE000880700F0E1FA0BB000BD000000000240F0
:100CF00010B5044621464FF0804000F0DEFB10BDE9
:100D000010B5044621464FF0804000F0D8FB10BDDE
:100D100029B1064A12680243044B1A6004E0034AF0
:100D200012688243014B1A6070470000303802405D
:100D300029B1064A12680243044B1A6004E0034AD0
:100D400012688243014B1A6070470000403802402D
:100D500029B1064A12680243044B1A6004E0034AB0
:100D600012688243014B1A60704700004438024009
:100D7000F0B5002100220024022500260223324F74
:100D80003F6807F00C0121B1042905D0082937D1AB
:100D900005E02E4F076036E02D4F076033E02A4F05
:100DA0003F1F3F68C7F38056274F3F1F3F6807F03C
:100DB0003F036EB1264FB7FBF3F7DFF88CC0ACF101
:100DC000040CDCF800C0CCF3881C07FB0CF40CE02E
:100DD0001E4FB7FBF3F7DFF870C0ACF1040CDCF882
:100DE00000C0CCF3881C07FB0CF4174F3F1F3F6873
:100DF000C7F301477F1C7D00B4FBF5F7076002E0F5
:100E0000124F076000BF00BF0F4F3F6807F0F001AF
:100E10000909104F7A5C0768D74047600A4F3F685E
:100E200007F4E051890A0B4F7A5C4768D740876026
:100E3000054F3F6807F46041490B064F7A5C4768ED
:100E4000D740C760F0BD0000083802400024F4001D
:100E500000127A000000002010B50446002C0BDDC3
:100E600040211248FFF79FFD80211048FFF799FDB0
:100E7000A0B2FFF745FF18E05CB940210B48FFF72F
:100E800092FD80210948FFF78EFDA0B2FFF738FFE1
:100E90000BE040210548FFF784FD80210348FFF760
:100EA00082FD614288B2FFF72BFF10BD000C0240AB
:100EB0001CB501214020FFF72BFF4FF400400090AC
:100EC00001208DF8040003208DF8050000208DF826
:100ED000060001208DF8070069460248FFF7EDFC87
:100EE0001CBD00000018024000B58BB00121042099
:100EF000FFF71EFF01210220FFF70AFF40200690A6
:100F000002208DF81C0003208DF81D0000208DF8B4
:100F10001E0001208DF81F0006A91948FFF7CDFC1F
:100F2000022206211648FFF710FD42F2CF00ADF86D
:100F30002000C72009900020ADF8220008A9114820
:100F400000F0C0FA6020ADF804000120ADF8060002
:100F50000F2003900020ADF8100001A9094800F00F
:100F6000B5F90821074800F0EFF90121054800F024
:100F70008FF90121034800F097F90BB000BD000084
:100F8000000402400008004000B58BB00121802021
:100F9000FFF7CEFE01210846FFF7BAFE402006907B
:100FA00002208DF81C0003208DF81D0000208DF814
:100FB0001E0001208DF81F0006A91A48FFF77DFCCE
:100FC000092206211748FFF7C0FC42F2CF00ADF816
:100FD0002000C72009900020ADF82200ADF82800BD
:100FE00008A9114800F06EFA6020ADF80400012055
:100FF000ADF806000F2003900020ADF8100001A905
:10100000094800F063F90821074800F09DF9012123
:10101000054800F03DF90121034800F045F90BB007
:1010200000BD000000000240001C004070B50446F6
:10103000B42C00DDB42404EB84008000B42190FBC8
:10104000F1F0401D85B22946014800F034FA70BD28
:101050000008004070B5044604EB84008000B42111
:1010600090FBF1F0401D85B22946024800F023FABA
:1010700070BD0000001C00400CB5002001900090E5
:101080003448006840F480303249086000BF31487D
:10109000006800F4003000900198401C0190009816
:1010A00018B90198B0F5A04FF1D12A48006800F4B2
:1010B000003010B10120009001E000200090009865
:1010C000012846D123484030006840F08050214933
:1010D000403108602048006840F440401E490860E4
:1010E0001C48083000681B49083108600846006841
:1010F00040F4004008600846006840F4A0500860D2
:101100001648091F0860081F006840F08070091F1A
:10111000086000BF0F48006800F000700028F9D098
:1011200040F205700E4908600A480830006820F057
:1011300003000849083108600846006840F00200D2
:10114000086000BF03480830006800F00C00082861
:10115000F8D10CBD00380240007000400854400730
:10116000003C024000B585B001210220FFF7E0FD00
:1011700001210420FFF7CCFD01210846FFF7C8FD3F
:101180008020039001208DF8100000208DF81200BF
:1011900001208DF8110000208DF8130003A91248DA
:1011A000FFF78BFB1020039000208DF8100001202A
:1011B0008DF8130003A90D48FFF77FFB5320ADF80E
:1011C00000004CF24F3001900020ADF80200ADF865
:1011D00008006946064800F075F90021044800F04F
:1011E00063F805B000BD00000008024000000240A6
:1011F0000004004010B500BF502080F31188BFF3F9
:101200004F8FBFF36F8F00BF01F074F918B14FF02B
:1012100080500449086000BF002080F3118800BF9F
:1012200010BD000004ED00E010B51548006840F462
:101230007000134908601348006840F0010011492C
:10124000086000200F49083108600E4800680E4908
:1012500008400C4908600D48091D0860081F006817
:1012600020F48020091F0860002006490C31086026
:10127000FFF702FF4FF0006001498039086010BDA0
:1012800088ED00E000380240FFFFF6FE1030002439
:1012900021B1028842F08002028004E002884FF609
:1012A0007F731A400280704721B1028842F0010228
:1012B000028004E002884FF6FE731A4002807047F5
:1012C00001894FF6F87211400181704770B5002412
:1012D00000220023058C4FF6FE7635400584028CF3
:1012E0008388048B4FF68F752C40B51E2C400D88DB
:1012F0002C43751E2A408D892A434D882A43104D60
:10130000A84202D00F4DA84213D14FF6F7752A40DC
:10131000CD892A434FF6FB752A408D882A434FF624
:10132000FF652B404FF6FF552B400D8A2B434D8A0E
:101330002B43838004838D684563028470BD000065
:1013400000000140000401400A460021018B4FF6D5
:10135000F7731940114301837047000070B50024F2
:1013600000220023058C4FF6FF6635400584028C71
:101370008388848B4FF68F752C404FF6FC752C407C
:101380000D882C434FF6FF552A408D894FF6FF7686
:1013900006EA05252A434D8806EA05252A43154D08
:1013A000A84202D0144DA8421DD14FF2FF752A4029
:1013B000CD894FF6FF7606EA05252A434FF6FF351D
:1013C0002A408D8806EA05252A434EF6FF752B40F4
:1013D0004DF6FF752B400D8A06EA05152B434D8A05
:1013E00006EA05152B43838084838D68C5630284D8
:1013F00070BD000000000140000401400A460021C9
:10140000818B4FF6F77319401143818370470000B9
:1014100070B5002200230024058C4EF6FF7635407F
:101420000584038C8488828B48F6FF752A404FF62A
:10143000FF452A400D884FF6FF7606EA05252A4328
:101440004DF6FF752B408D8906EA05352B434D88F7
:1014500006EA05352B430A4DA84202D0094DA842A1
:1014600008D14BF6FF752C400D8A4FF6FF7606EA41
:1014700085152C43848082838D680564038470BD48
:1014800000000140000401400A460021818B4FF218
:10149000FF7319404FF6FF7303EA02231943818358
:1014A0007047002101804180818081608181C181FC
:1014B00001824182704741637047C1637047016494
:1014C0007047000000220288184B98420ED0184B3B
:1014D00098420BD0B0F1804F08D0164B984205D0FF
:1014E000154B984202D0154B984204D14FF68F739A
:1014F0001A404B881A43124B984207D0114B98421E
:1015000004D04FF6FF431A400B891A4302804B6800
:10151000C3620B880385054B984202D0044B984266
:1015200001D18B7A0386012383827047000001403A
:10153000000401400004004000080040000C00408E
:10154000001000400014004070B505460C462846C7
:10155000FFF780FA2046FFF77FFC70BD10B5002032
:10156000FFF778FA6420FFF777FC10BD10B5642010
:10157000FFF770FA0020FFF76FFC10BD10B588B0C0
:10158000044601210846FFF7C3FB01211020FFF7A5
:10159000DFFB072209212248FFF7D7F907220A219A
:1015A0001F48FFF7D2F902208DF8080003208DF8BC
:1015B000090000208DF80A0001208DF80B004FF47F
:1015C000C060019001A91648FFF777F90494002044
:1015D000ADF81400ADF81600ADF81800ADF81C0019
:1015E0000C20ADF81A0004A90E4800F03DFC25209F
:1015F0008DF80C0000208DF80D0001208DF80F00F3
:1016000003A8FFF7C7FA012240F22551054800F070
:1016100006FC0121034800F0BFFB08B010BD00002C
:10162000000002400010014010B504460BE014F821
:10163000011B074800F087FC00BF8021044800F030
:10164000B7FB0028F9D020780028F0D110BD0000A9
:101650000010014010B588B0044601210220FFF7B8
:1016600057FB01218804FFF763FB07220A21234867
:10167000FFF76BF907220B212048FFF766F90220DC
:101680008DF8080003208DF8090000208DF80A006D
:1016900001208DF80B004FF44060019001A917481C
:1016A000FFF70BF904940020ADF81400ADF8160014
:1016B000ADF81800ADF81C000C20ADF81A0004A914
:1016C0000F4800F0D1FB27208DF80C0000208DF88A
:1016D0000D008DF80E0001208DF80F0003A8FFF714
:1016E00059FA012240F22551054800F098FB0121EA
:1016F000034800F051FB08B010BD00000004024098
:101700000048004010B504460BE014F8011B0748E0
:1017100000F019FC00BF8021044800F049FB0028BC
:10172000F9D020780028F0D110BD0000004800401A
:1017300010B540F22551624800F047FB012823D143
:101740006048007864281FDA5D4800F0F7FBC1B2FA
:101750005C480478601C5B4A10705B4801555BA1D3
:10176000FEF7D2FE88B1002059490860012059498E
:1017700008606FF04500FFF703FA64215248FEF756
:10178000E1FE00204F49087098E053A14E48FEF753
:10179000BBFE60B100204F490860FEF7CBFF64211B
:1017A0004948FEF7CFFE00204649087086E04BA16D
:1017B0004548FEF7A9FE68B10120454908600020B0
:1017C0004449086064214048FEF7BCFE00203D49C2
:1017D000087073E042A13C48FEF796FE60B100201D
:1017E0003B490860FEF7A6FF64213748FEF7AAFED2
:1017F00000203449087061E03AA13348FEF784FEC6
:1018000060B16FF045010846FFF79EFE64212E4847
:10181000FEF798FE00202B4908704FE032A12A48BD
:10182000FEF772FE58B146210846FFF78DFE64218F
:101830002548FEF787FE0020224908703EE02BA1D4
:101840002148FEF761FE48B1FEF774FF64211E488F
:10185000FEF778FE00201B4908702FE024A11A48EB
:10186000FEF752FE48B1FFF781FE64211648FEF7ED
:1018700069FE00201349087020E01EA11248FEF7FF
:1018800043FE48B1FFF76AFE64210F48FEF75AFE97
:1018900000200C49087011E017A10B48FEF734FE38
:1018A00060B15A20FFF7C2FB5A20FFF7D3FB642137
:1018B0000548FEF747FE00200249087010BD0000F1
:1018C0000010014011000020F4000020627A0000A6
:1018D00038000020340000207A620000786A00009E
:1018E0006A780000716A6C0068746C00747A000099
:1018F000797A6C007A7A6C006777737874000000EC
:1019000010B59AB040F22551EC4800F05EFA01287B
:1019100073D1EA4800F012FBC1B2E9480478601CB8
:10192000E74A1070E7480155E7A1FEF7EDFD58B111
:10193000FEF700FFE5A0FFF777FE6421E148FEF720
:1019400001FE0020DE490870E1A1DE48FEF7DCFD63
:1019500000283FD0E0A1DB48FEF7D6FD38B16FF09C
:101960006300FFF70DF9DDA0FFF75EFE2BE0DCA1C1
:10197000D448FEF7C9FD28B1FEF7DCFED3A0FFF77F
:1019800053FE20E0D7A1CF48FEF7BEFD30B1642062
:10199000FFF7F6F8D4A0FFF747FE14E0D3A1C9483B
:1019A000FEF7B2FD28B1FFF7E1FDD1A0FFF73CFE45
:1019B00009E0D0A1C348FEF7A7FD20B1FFF7CEFD97
:1019C000CDA0FFF731FE6421BE48FEF7BBFD00202D
:1019D000BB490870C9A1BB48FEF796FD002872D02C
:1019E000BDA1B848FEF790FD40B16FF04500FFF78C
:1019F000C7F8BAA0FFF718FE7EE05CE1B9A1B148D4
:101A0000FEF782FD28B1FFF7B3F8B7A0FFF70CFE91
:101A100072E0B3A1AB48FEF777FD28B1FEF78AFE6E
:101A2000AAA0FFF701FE67E0B5A1A648FEF76CFD8E
:101A3000002861D0B348FEF70CFF642101A8FEF72F
:101A4000A3FDB04803788278AFA101A8FEF76EFC31
:101A500001A8FFF757FEAB488078192803D1B1A041
:101A6000FFF7E2FD47E0A74880781A2803D1AEA02F
:101A7000FFF7DAFD3FE0A34880781B2803D1ABA035
:101A8000FFF7D2FD37E09F4880781C2803D1A8A03B
:101A9000FFF7CAFD2FE09B4880781D2803D1A5A041
:101AA000FFF7C2FD27E0974880781E2803D1A2A047
:101AB000FFF7BAFD1FE0934880781F2804D19FA04C
:101AC000FFF7B2FD17E01FE08E488078202803D191
:101AD0009BA0FFF7A9FD0EE08A488078212803D15A
:101AE00098A0FFF7A1FD06E086488078222802D161
:101AF00095A0FFF799FD00BF64217248FEF722FD13
:101B000000206F4908706EE090A16E48FEF7FCFC63
:101B1000B0B18F4800681E388D49086008460068DB
:101B20001E2801DA1E20086089490878FFF77EFA2E
:101B300064216448FEF706FD00206149087052E008
:101B400084A16048FEF7E0FCB0B1814800681E3017
:101B50007F49086008460068962801DD96200860E5
:101B60007B490878FFF762FA64215648FEF7EAFCE1
:101B700000205349087036E077A15248FEF7C4FCB4
:101B8000B0B1764800681E307449086008460068A5
:101B9000B42801DDB420086070490878FFF75AFACC
:101BA00064214848FEF7CEFC0020454908701AE041
:101BB0006BA14448FEF7A8FCA8B1684800681E382D
:101BC0006649086008460068002801DA00200860BD
:101BD00062490878FFF73EFA64213A48FEF7B2FC02
:101BE0000020374908705FA13648FEF78DFC08B326
:101BF0005D48006808B9012000E000205A490860EB
:101C00000846006850B100205849086058A0FFF706
:101C10000BFD6FF04500FEF7B3FF04E0FEF78AFD11
:101C200054A0FFF701FD64212648FEF78BFC00203D
:101C30002349087050A12348FEF766FCE8B14B48E1
:101C4000006808B9012000E0002048490860084603
:101C5000006830B100204449086048A0FFF7E4FC68
:101C600004E0FEF767FD46A0FFF7DEFC642115489F
:101C7000FEF768FC00201249087042A11148FEF7E7
:101C800043FCC0B1FEF792FE3F49086008463FA101
:101C9000026817A8FEF74AFB3EA117A8FEF746FC0C
:101CA00017A8FFF72FFD64210648FEF74BFC002024
:101CB0000349087000BF1AB010BD00000048004082
:101CC000100000209000002075000000747A0000D1
:101CD000707265737300000061616100716A0000D9
:101CE000656565006262620068740000636363009A
:101CF000797A0000777777007A7A00007D0000001B
:101D000077736400120000200D0ACEC2B6C8A3BAD1
:101D10002564A1E620CAAAB6C8A3BA256425250D64
:101D20000A00000032350000323600003237000071
:101D30003238000032390000333000003331000007
:101D400033320000333300003334000071617A0015
:101D50004400002065646300777378004800002029
:101D60007266760071717100340000203800002026
:101D7000627A00007A62000074747400786A00006D
:101D80006A7800006A6C690018000020BEE0C0EBB1
:101D90003A2564000D0A000021B1828942F4005204
:101DA000828104E082894DF6FF731A408281704778
:101DB00002460020B1F5007F00D100BF13880B4020
:101DC0000BB1012000E00020704770B502460024EE
:101DD00000230025002040F66A16B14200D100BF62
:101DE000C1F3421501F01F03012606FA03F3012D8A
:101DF00002D19689334006E0022D02D1168A334083
:101E000001E0968A33400C12012606FA04F4168883
:101E1000344013B10CB1012000E0002070BDF0B5DA
:101E20000346002400260025002040F66A17B94228
:101E300000D100BF1846C1F3421401F01F0601276C
:101E400007FA06F5012C01D10C3004E0022C01D177
:101E5000103000E014301AB107682F43076002E029
:101E60000768AF430760F0BD2DE9FF4705460E4602
:101E70000024A14600BFA046B08900B100BF2C8A53
:101E800024F44054F08804432C82AC8941F20C6065
:101E90008443B08831890843718908430443AC8185
:101EA000AC8A24F44074B0890443AC826846FEF7DF
:101EB0005FFF2048854202D01F48854202D1DDF8ED
:101EC0000C9001E0DDF80890A88900F4004040B1D2
:101ED00009EBC90000EB091031684900B0FBF1F7CC
:101EE00007E009EBC90000EB091031688900B0FB7D
:101EF000F1F76420B7FBF0F004012009642101FB35
:101F00001078A88900F4004040B1322000EBC800EE
:101F1000B0FBF1F000F00700044308E0322000EBD2
:101F200008106421B0FBF1F000F00F0004432C8195
:101F3000BDE8FF8700100140001401400146888879
:101F4000C0F308007047C1F308028280704700BFE9
:101F5000FEE730380A2801D2012070470020704780
:101F600000BFFEE72DE9F04104460D4616461F4628
:101F70004FF400711248FEF70BFD08B9012000E094
:101F8000002020604FF400610D48FEF701FD08B904
:101F9000012000E00020286020210A48FEF7F8FC1C
:101FA00008B9012000E00020306040210548FEF71C
:101FB000EFFC08B9012000E000203860BDE8F081A6
:101FC000000802400010024001B503E04FF47A70AF
:101FD00000F006F80098411E00910028F6D108BDD7
:101FE00001B500204FF0E02108610098C0EBC0006F
:101FF00000EB4000401E486100208861012008611C
:1020000000BF4FF0E020006900F480300028F8D0D5
:1020100000204FF0E021086108BD00004FF440703F
:10202000FEF7F4FD4FF41650FFF7A8FA4FF41650E0
:10203000FFF710FBFFF796F8FEF75EFDFEF782FB59
:10204000FEF736FFFEF750FFFEF79EFFFEF732FD6C
:102050005A20FEF7EBFF5A20FEF7FCFF39E19D48BE
:102060000068012879D19C4B9C4A9D499D48FFF707
:1020700079FF9C48006880B99948006801280CD114
:1020800096480068012808D19348006828B96FF085
:1020900027010846FFF758FA89E0924800680128AE
:1020A0000ED18F48006858B98C48006840B98A48FA
:1020B000006828B96FF063011E20FFF745FA76E04B
:1020C0008848006878B98648006860B98348006825
:1020D00048B981480068012805D11E216FF06300CE
:1020E000FFF732FA63E07F48006870B97C48006807
:1020F00058B97A48006840B97748006828B96FF045
:1021000027010846FFF720FA51E0764800680128C9
:102110000FD17348006801280BD17048006840B99E
:102120006D48006828B96FF063010020FFF70CFAD2
:102130003DE06C48006888B96948006870B9674834
:10214000006801280AD164480068012806D10021EE
:102150006FF06300FFF7F8F929E02DE061480068AF
:10216000012810D15E48006801280CD15B48006846
:10217000012808D15848006828B96FF06301002091
:10218000FFF7E2F913E05748006880B95448006847
:1021900001280CD151480068012808D14E48006838
:1021A000012804D100216FF06300FFF7CDF9494801
:1021B000006808B9FEF7BEFA4B480068012870D1E4
:1021C00000214A48FFF770F86FF04500FEF7D8FC91
:1021D00047480068401C4649086008460068642873
:1021E00006D1FEF7E3FB4349086000204049086040
:1021F00040480068142868DAFEF79CFAB42000F022
:1022000095F86420FFF7E0FEFEF7D0FB394908603F
:102210004FF4FA70FFF7D8FE36480068142814DD32
:10222000B42000F083F8FEF7C1FB324908604FF498
:10223000FA70FFF7C9FE2F480068142805DDFFF784
:102240008DF94FF41670FFF7BFFEFEF7AFFB29497B
:1022500008604FF4FA70FFF7B7FE264800681428AC
:102260002CDA5A2000F062F8002000F05FF84FF4FA
:10227000FA70FFF7A9FE002000F058F8FEF796FB71
:102280001C4908604FF4FA70FFF79EFE1948006879
:10229000142807DDFFF76AF94FF41670FFF794FE74
:1022A0000CE016E0FEF764FC4FF47A70FFF78CFE4A
:1022B000FFF75CF94FF41670FFF786FE5A2000F026
:1022C00035F86FF04500FEF75BFC01210748FEF78B
:1022D000EBFFC4E638000020300000202C00002076
:1022E00028000020240000203400002000100040BE
:1022F0001C000020180000200A490968096809B973
:10230000012100E0002121B14FF0FF31064A1160A8
:1023100006E004490968C968C868034A4168116051
:1023200070470000580000208400002010B50446CB
:10233000B4B93C48006840F400403A4908604FF4A2
:10234000FA70FFF74DFE3748006820F40040354929
:1023500008604FF4FA70FFF743FE1320FFF734FED6
:102360002D2C11D12F48006840F400402D49086001
:102370000120FFF729FE2B48006820F4004029497E
:1023800008601320FFF720FE5A2C19D12548006859
:1023900040F40040234908600120FFF715FE4FF488
:1023A000FA70FFF71DFE1F48006820F400401D4929
:1023B00008601220FFF708FE4FF4FA70FFF710FED6
:1023C000872C11D11748006840F400401549086077
:1023D0000220FFF7F9FD1348006820F4004011497E
:1023E00008601220FFF7F0FDB42C19D10D480068E9
:1023F00040F400400B4908600220FFF7E5FD4FF470
:10240000FA70FFF7EDFD0748006820F40040054929
:1024100008601120FFF7D8FD4FF4FA70FFF7E0FDD8
:1024200010BD00001418024001460A69D1E90130CC
:102430009860D1E9010358605068884201D18868EA
:102440005060002008611068401E106010687047DE
:1024500042684A6093688B60936859609160086134
:1024600003685B1C036070471D48006818B10120B9
:102470001C49086032E000201A4908601A480068C8
:10248000B0FA80F0C0F11F0101EB8100174A52F849
:10249000200008B1012000E0002050B900BF50200A
:1024A00080F31188BFF34F8FBFF36F8F00BF00BF62
:1024B000FEE701EB81020D4B03EB8200426852689C
:1024C000426000F108024368934202D142685268B8
:1024D00042604268D268064B1A6000BF7047000035
:1024E0008C000020780000206C00002058010020A3
:1024F000540000202DE9F0414FF0000844480068E6
:10250000002877D143480068451C4248056015BB48
:1025100041480068006808B9012000E0002050B977
:1025200000BF502080F31188BFF34F8FBFF36F8F30
:1025300000BF00BFFEE738480768384800683649E2
:1025400008603648076036480068401C3449086017
:10255000FFF7D2FE00BF3348006885423CD300BF7E
:102560002D480068006808B9012000E0002020B173
:102570004FF0FF302B4908602DE027480068C06805
:10258000C4686668B54202D22648066023E0201D72
:10259000FFF74AFFA06A18B104F11800FFF744FFE3
:1025A00094F82C10012088401F49096808431E49EF
:1025B0000860E16A01EB81011C4A02EB8100211DE8
:1025C000FFF746FF1A49E06A0968C96A8842C7D31B
:1025D0004FF00108C4E700BF15480068C06A00EB6F
:1025E0008000124951F82000012801D94FF001085C
:1025F00005E0FFE70F480068401C0E4908600E48E0
:10260000006808B14FF001084046BDE8F0810000C5
:102610008C00002068000020580000205C00002092
:102620007C000020840000206C0000205801002065
:102630005400002074000020780000204FF040700B
:10264000E1EE100A704704000008000000000000DE
:1026500000020001000010007826000800000020A1
:1026600090000000C4010008082700089000002026
:10267000F0070000E0010008000000000102030470
:102680000102030406070809000000000000000022
:102690001900000000000000000000000000000021
:1026A000000000000000000000000000000000002A
:1026B0000000000000000000000000005A000000C0
:1026C0005A000000000000000000000000000000B0
:1026D00000000000000000000000000000000000FA
:1026E00000000000000000000000000000000000EA
:1026F00000000000000000000000000000000000DA
:082700000000000000000000D1
:040000050800018965
:00000001FF
